:1000000000800020BD010000DD050000DD050000CE
:10001000DD050000DD050000DD050000A90500008C
:10002000A9050000A9050000A9050000DD050000E4
:10003000DD050000A9050000DD05000099050000B0
:10004000DD050000DD050000DD050000DD05000028
:10005000DD050000DD050000DD050000DD05000018
:10006000DD050000DD050000DD050000DD05000008
:10007000DD050000DD050000DD050000DD050000F8
:10008000DD050000DD050000DD050000DD050000E8
:10009000DD050000DD050000DD050000DD050000D8
:1000A000DD050000DD050000DD050000DD050000C8
:1000B000DD050000DD050000DD050000DD050000B8
:1000C000DD050000DD050000DD050000DD050000A8
:1000D000DD050000DD050000DD050000DD05000098
:1000E000DD050000DD050000DD050000DD05000088
:1000F000DD050000B90E0000DD050000351300002D
:10010000DD050000E5160000DD050000DD0500004E
:10011000DD050000DD050000DD050000DD05000057
:10012000DD050000DD050000DD050000DD05000047
:10013000DD050000DD050000DD050000DD05000037
:10014000DD050000DD050000DD050000DD05000027
:1001500099260000B1260000C9260000E126000013
:10016000DD0500009D190000DD050000DD05000033
:10017000DD050000DD050000DD050000DD050000F7
:10018000DD050000DD050000DD050000DD050000E7
:10019000DD050000DD050000DD0500003907000079
:1001A0008907000011080000CD0800005109000077
:1001B000DD050000DD05000019230000544B4CF262
:1001C000205210B51A804DF628121A8000BF00BFC9
:1001D00000F008FA4F4B4FF010621A604E4A9A60D6
:1001E0004E4ADA604E4B1A6812F4807204D14D49BF
:1001F0000A604FF4A8521A604B4B1A7802F00802BA
:10020000D2B21AB11A7842F008021A70474B484825
:10021000484C2A221A700023474A02E01959995083
:10022000043399188142F9D3444B454A002101E037
:1002300043F8041B9342FBD34249434800231A5816
:100240005A500433B3F5DE7FF9D1404B404A802148
:1002500003F8011B9342FBD13A4A3E4B1A603E4BD6
:100260000A221A703D4B24221A70A02203F8012C96
:100270003B4A137803F00203DBB2002BF9D0384A73
:10028000137803F01003DBB2002BF9D1344A137852
:1002900003F00C03082BFAD1324B03221A704022D0
:1002A0005A702F4A137803F02003DBB2002BF9D0E9
:1002B0002B4A137803F04003DBB2002BF9D02A4B12
:1002C0002A4A1A6002225A60294B20221A70244AB4
:1002D000137803F00C030C2BFAD1264A264B1A6034
:1002E000264B274A1A60072243F8042C62B600F016
:1002F000D3FB0C4B1B68DC0702D5224800F040FB07
:1003000003F03CFB00F074F903F020FBFEE700BFB4
:100310000E20054030800440823F04000100002B85
:1003200010D0034014D0034002D0074000E0074043
:10033000148DFF1F544B00006087FF1F148DFF1F9B
:10034000E492FF1F0082FF1F0000000000E400E0B5
:100350005FE400E008ED00E0005006400140064088
:10036000064006400440064044800440000003016B
:1003700000400640C01005000480044014E000E086
:10038000FF76010053563654FFFFFFFFFFFFFFFFCC
:10039000FFFFFFFFFFFFFFFFFFFFFFFFFFFFFFFF6D
:1003A000FFFFFFFFFFFFFFFFFFFFFFFFFFFFFFFF5D
:1003B000FFFFFFFFFFFFFFFFFFFFFFFFFFFFFFFF4D
:1003C000FFFFFFFFFFFFFFFFFFFFFFFFFFFFFFFF3D
:1003D000FFFFFFFFFFFFFFFFFFFFFFFFFFFFFFFF2D
:1003E000FFFFFFFFFFFFFFFFFFFFFFFFFFFFFFFF1D
:1003F000FFFFFFFFFFFFFFFFFFFFFFFFFFFFFFFF0D
:10040000FFFFFFFFFFFFFFFFFFFFFFFFFEFFFFFFFD
:1004100008B548F61450074BC1F6FF701B1A062B9F
:1004200000D808BD40F20003C0F20003002BF8D052
:100430009847F6E7178DFF1F08B548F6145048F6A1
:100440001453C1F6FF70C1F6FF731B1A9B1003EB28
:10045000D373591000D108BD40F20002C0F200026F
:10046000002AF8D09047F6E710B548F61454C1F6C4
:10047000FF74237873B9FFF7CBFF40F20003C0F29B
:1004800000032BB144F65430C0F20000AFF30080FB
:100490000123237010BD00BF08B540F20003C0F275
:1004A00000034BB144F6543048F61851C0F2000036
:1004B000C1F6FF71AFF3008048F61450C1F6FF702B
:1004C00003682BB140F20003C0F2000303B1984768
:1004D000BDE80840FFF7B0BF224B60221A70E1224E
:1004E0005A70214B214A1978214B082901D1012149
:1004F00002E00A2907D13921116013221A601D4B2D
:1005000019605A600BE00C291A4901D1352000E02E
:100510003D20106012221A60174B08601A60174BBA
:1005200017491B78174A03B101230B601360164B60
:10053000164A1978164B012901D880210CE00429AC
:1005400001D8842108E0082901D8852104E0102978
:1005500001D8862100E08721116019600D4B01222E
:100560001A707047004007406487FF1F08B00340BF
:100570000CB0034008B00B400CB00B40318DFF1F96
:1005800020B0034020B00B406587FF1F24B003401C
:1005900024B00B40308DFF1F024B1A6801321A60E5
:1005A000704700BFBC8DFF1F38B50B4C2546236834
:1005B000580301D501F0F2F92B68590501D500F077
:1005C0007BFC2B681A0501D500F0B4FE2368DB0420
:1005D000EDD501F087F8EAE73480044008B5FFF76D
:1005E000E3FFFFFF014B10221A80704700200540F7
:1005F0007047FFFF024A13681818106018467047CA
:100600006887FF1FEFF313839BB9EFF3108098B94E
:10061000EFF3058323B10F2B04D9084A985C01E05E
:100620004FF48070EFF311833BB1984228BF184616
:1006300070474FF0FF30704718467047F0E300E016
:10064000002300E00133C25C002AFBD1184670474A
:1006500010B50023B0FBF2F402FB1400092801D806
:10066000303000E03730C85420460CB10133F1E798
:10067000CA185470224605E0885CCC5C8C54C8547F
:100680000132013B9A42F7DB084610BD084B4FF49C
:1006900000021A604FF080721A604FF000721A6008
:1006A0004FF080621A604FF000621A60704700BF1E
:1006B00008E100E0212830B521D8042A1FD8DFE85E
:1006C00002F00709050B03000B2306E00A2304E0F0
:1006D000082302E00C2300E00923094A02EBC002D0
:1006E000526872B61468074D24F47024146044F004
:1006F000807444EA034345F82010136062B630BDAD
:1007000014450000348DFF1F094B03EBC0035B68E9
:1007100072B61A6822F0877222F4803242F0807238
:100720001A60044B002243F8202062B6704700BFD5
:1007300014450000348DFF1F114B10B51C68E004F8
:100740001C6004D50F4BDA680AB1DB689847A10436
:1007500004D50C4B1A690AB11B699847A20604D547
:10076000084B1A6E0AB11B6E9847E30606D5054B77
:10077000D3F8842012B1D3F88430984710BD00BF5D
:10078000A0900440348DFF1F1F4B10B51C68E00380
:100790001C6004D51D4B1A680AB11B689847A10359
:1007A00004D51A4B5A680AB15B689847E20704D52A
:1007B000164B1A6C0AB11B6C9847A30704D5134B50
:1007C0005A6C0AB15B6C9847200704D50F4B9A6CA2
:1007D0000AB19B6C9847610704D50C4BDA6C0AB1DF
:1007E000DB6C9847220304D5084B5A6E0AB15B6E46
:1007F0009847630306D5054BD3F8802012B1D3F890
:100800008030984710BD00BFA0A00440348DFF1F6A
:100810002C4B10B51C6820071C6004D52A4B5A6A63
:100820000AB15B6A9847E10604D5274B9A6A0AB178
:100830009B6A9847620604D5234BDA6A0AB1DB6AE1
:100840009847230604D5204B1A6B0AB11B6B9847B7
:10085000A00604D51C4B5A6B0AB15B6B9847E107A5
:1008600004D5194BDA6B0AB1DB6B9847A20704D5A4
:10087000154B9A6D0AB19B6D9847630704D5124BCF
:10088000DA6D0AB1DB6D9847A00504D50E4BDA6E20
:100890000AB1DB6E9847E10504D50B4B1A6F0AB11C
:1008A0001B6F9847620504D5074B5A6F0AB15B6FFF
:1008B0009847230504D5044B9A6F0AB19B6F98475C
:1008C00010BD00BFA0B00440348DFF1F1E4B10B5FB
:1008D0001C68E0071C6004D51C4B9A680AB19B6831
:1008E0009847210604D5194B5A690AB15B699847A4
:1008F000E20604D5154B9A690AB19B6998476307CC
:1009000004D5124BDA690AB1DB699847200704D590
:100910000E4B1A6A0AB11B6A9847A10704D50B4B04
:100920009A6B0AB19B6B9847A20604D5074B1A6DC8
:100930000AB11B6D9847630604D5044B5A6D0AB182
:100940005B6D984710BD00BFA0C00440348DFF1FF1
:10095000094B10B51C68A2071C6004D5074B9A6EA2
:100960000AB19B6E9847E30704D5044BDA6F0AB1CE
:10097000DB6F984710BD00BFA0D00440348DFF1F2F
:10098000044B054900221A600A60044A10601022D4
:100990001A60704714D0034004D0034000D00340D5
:1009A000212810B518D80D4A52F8303093F88042FB
:1009B0003CB1012211B183F8802010BD83F80021E1
:1009C00010BD02EBC00043681A6811B142F0030287
:1009D00001E022F002021A6010BD00BF14450000C1
:1009E000212805D8034B53F8303093F800027047A4
:1009F0000020704714450000212816D80B4A02EB4E
:100A0000C00301295B6852F8302004D182F88012BB
:100A10004FF4A27208E0002082F8800211B94FF46E
:100A2000807201E040F203121A6070471445000022
:100A300072B60B4B0B491A680B4B1B68096862B600
:100A4000490102D5322A88BF0133C2F5BB32FF32D9
:100A50006021B2FBF1F24FF47A7000FB0320704783
:100A600018E000E004ED00E0BC8DFF1F70B5044607
:100A7000FFF7DEFF05466CB140F2E736FFF7D8FF1F
:100A8000401BB04203D9013C04D005F57A7501F052
:100A9000FFFEF3E770BDFFFF10B5FFF7F7FD164B44
:100AA000164A174C00204BF6FF7118605960282336
:100AB0001360936013619361136293621363936392
:100AC000092222600F4C20606160A360236144F81A
:100AD000042C0D4C20600D4801600D490B608B60AB
:100AE0000C4B1A60FFF7F8FC0420FFF7BFFFBDE8CE
:100AF000104001F06FBA00BF048003400C80034037
:100B0000008003400490034004800B4008800B40A9
:100B10000C800B4000800B40194B1A6842F4806235
:100B20001A60184A00231370174A1370174A13707B
:100B3000174A1370174A1370174B40F213321A609A
:100B40004FF451725A60154BC0F344321A70C0F31F
:100B500047125A700221042200F01F0098729A7006
:100B6000D9745A7588221A743C22DA700C4B4022D0
:100B70006FF44A711A705B184FF400521A60704794
:100B800034800440428EFF1FC18DFF1F488EFF1F1F
:100B9000438EFF1FC08DFF1F40A0044000A00640F1
:100BA0002DE400E0134A937800F0030103F0EC0316
:100BB0000B43410748BF43F01003937000F00F034D
:100BC000042B0C4903D18B7943F040038B7153798B
:100BD000C20603F0EF03074A48BF43F01003537106
:100BE0009379800603F0EF0348BF43F0100393713D
:100BF000704700BF00A006400E4B1B68580510B59B
:100C000003D410BD01F044FE00E00B4C2378002B10
:100C1000F8D10A4A4FF400511160094A0949D370CA
:100C200040F203120A604A60074A1370074A1370C1
:100C300010BD00BF34800440C08DFF1F84E100E080
:100C400000A0064040A00440428EFF1FC18DFF1F40
:100C500038B5094B04461D78002DFCD120460121F2
:100C6000FFF7CAFE20462946FFF79AFE034B53F8CA
:100C70003420034B1A6038BDC08DFF1F144500009F
:100C8000448EFF1F1D4B1B685A052DE9F041074696
:100C900031D51B4B1B680BB101221A70194B1A4D31
:100CA0001C781A4EDFF8688001343F2C88BF00247E
:100CB00014E0FFF7A7FC40280CDC33791B060DD5A8
:100CC0002B7801333F2B88BF002318F80320F271E3
:100CD0002B7003E0FF2801DD01F0DAFD2B78A34241
:100CE000E7D00B4B1F550B4B01221A70054B1C70A4
:100CF000064BBC22DA70BDE8F08100BF34800440AE
:100D0000448EFF1F488EFF1F438EFF1F00A006402A
:100D1000C28DFF1FC08DFF1F2DE9F84F254B1B68AB
:100D200006465805894642D5234B1B680BB1012264
:100D30001A70224DB346AA4632E0214B1C782F7818
:100D400001343F2C88BF0024A74209D01BF8012B97
:100D50001C4B1A551C4B01221A70194B1C701FE0BA
:100D60001A4BBC22DA709846FFF74CFC40280FDC87
:100D700098F8043019060FD52B78124A01333F2B0F
:100D800088BF0023D25C88F807208AF8003003E08F
:100D9000FF2801DD01F07CFD2B78BB42E4D0D5E7D4
:100DA00006EB09039B45C8D3084BBC22DA70BDE8AB
:100DB000F88F00BF34800440448EFF1F438EFF1F16
:100DC000488EFF1FC28DFF1FC08DFF1F00A0064071
:100DD00010B5044C01E001F05BFD2378002BFAD143
:100DE00010BD00BFC08DFF1F054B064A1B78107851
:100DF000834201D33F3000E00138C01A704700BF82
:100E0000488EFF1F438EFF1F044B1878044B1B783E
:100E1000984238BF4030C01A704700BF428EFF1F53
:100E2000C18DFF1F084B094A19781378994207D0E2
:100E300001333F2B88BF00230549C85C13707047FE
:100E40004FF0FF30704700BF428EFF1FC18DFF1F64
:100E5000028EFF1F074B1A78074B1B789A4206D069
:100E600001333F2B88BF0023044AD05C70474FF00A
:100E7000FF307047428EFF1FC18DFF1F028EFF1F84
:100E8000094B1B685B050ED5084BDA7802F0CB02E4
:100E9000DA7040225A74DA7842F03402DA70044B85
:100EA0001A78044B1A7070473480044000A0064042
:100EB000C18DFF1F428EFF1F70B52D4B1A7912F0A6
:100EC000300F1DD072B6997D21B9DA7940225A745B
:100ED00062B615E062B6274A27481278274D007897
:100EE0001C46531C3F2B88BF0023E67983421CBF5E
:100EF000EE541A46013911F0FF01F2D11D4B1A7060
:100F00001B4AD37819465BB2002B1BDA13791806FB
:100F100018D51B4B1B4C1D781B4B1B78AB4209D0C3
:100F200001333F2B88BF00231079E05CD071107D26
:100F30000728F3D9144A13700D4B1A79120601D5FC
:100F40007C22DA7001F04003DBB27BB1084B1A79E6
:100F500002F04002D2B2194642B10C4B00221A7084
:100F60000B4B1B6803B11A703C23CB7070BD00BFE4
:100F700000A00640428EFF1FC18DFF1F028EFF1F83
:100F8000488EFF1FC28DFF1F438EFF1FC08DFF1FA6
:100F9000448EFF1F184B1A6842F400621A60174A09
:100FA00000231370164A1370164A1370164A1370F2
:100FB000164A1370164B40F213321A604FF45172F6
:100FC0005A60144BC0F344321A70C0F347125A707F
:100FD00000F01F000422022198729A70D9745A7589
:100FE00088221A743C22DA700B4B40221A700B4B89
:100FF0004FF400421A60704734800440B38EFF1FE4
:101000004A8EFF1FBC8EFF1FB48EFF1F498EFF1F2D
:101010000CB0044000B006402FE400E004E100E022
:10102000134A937800F0030103F0EC030B434107EC
:1010300048BF43F01003937000F00F03042B0C49DA
:1010400003D18B7943F040038B715379C20603F0CF
:10105000EF03074A48BF43F01003537193798106A9
:1010600003F0EF0348BF43F010039371704700BFD4
:1010700000B006400E4B1B68180510B503D410BD18
:1010800001F006FC00E00B4C2378002BF8D10A4A53
:101090004FF400411160094A0949D37040F203122C
:1010A0000A604A60074A1370074A137010BD00BFF8
:1010B00034800440498EFF1F84E100E000B0064008
:1010C0000CB00440B38EFF1F4A8EFF1F38B5094B8A
:1010D00004461D78002DFCD120460121FFF78CFC31
:1010E00020462946FFF75CFC034B53F83420034BA2
:1010F0001A6038BD498EFF1F14450000B88EFF1FCF
:101100001D4B1B681A052DE9F041074631D51B4BD5
:101110001B680BB101221A70194B1A4D1C781A4E1C
:10112000DFF868800134272C88BF002414E0FFF723
:1011300069FA40280CDC33791B060DD52B78013376
:10114000272B88BF002318F80320F2712B7003E0CF
:10115000FF2801DD01F09CFB2B78A342E7D00B4B6D
:101160001F550B4B01221A70054B1C70064BBC22FD
:10117000DA70BDE8F08100BF34800440B88EFF1FF4
:10118000BC8EFF1FB48EFF1F00B006404B8EFF1FAA
:10119000498EFF1F2DE9F84F254B1B6806461805A1
:1011A000894642D5234B1B680BB101221A70224D90
:1011B000B346AA4632E0214B1C782F780134272C05
:1011C00088BF0024A74209D01BF8012B1C4B1A55DD
:1011D0001C4B01221A70194B1C701FE01A4BBC22C9
:1011E000DA709846FFF70EFA40280FDC98F80430C2
:1011F00019060FD52B78124A0133272B88BF0023FD
:10120000D25C88F807208AF8003003E0FF2801DD6F
:1012100001F03EFB2B78BB42E4D0D5E706EB090397
:101220009B45C8D3084BBC22DA70BDE8F88F00BFDD
:1012300034800440B88EFF1FB48EFF1FBC8EFF1F8A
:101240004B8EFF1F498EFF1F00B0064010B5044CA7
:1012500001E001F01DFB2378002BFAD110BD00BF87
:10126000498EFF1F054B064A1B781078834201D335
:10127000273000E00138C01A704700BFBC8EFF1F46
:10128000B48EFF1F044B1878044B1B78984238BF6C
:101290004030C01A704700BFB38EFF1F4A8EFF1F39
:1012A000084B094A19781378994207D001333F2B2C
:1012B00088BF00230549C85C137070474FF0FF30AA
:1012C000704700BFB38EFF1F4A8EFF1F738EFF1F34
:1012D000074B1A78074B1B789A4206D001333F2BF5
:1012E00088BF0023044AD05C70474FF0FF3070473E
:1012F000B38EFF1F4A8EFF1F738EFF1F094B1B68A3
:101300001B050ED5084BDA7802F0CB02DA704022CA
:101310005A74DA7842F03402DA70044B1A78044BCB
:101320001A7070473480044000B006404A8EFF1F98
:10133000B38EFF1F70B52D4B1A7912F0300F1DD0F0
:1013400072B6997D21B9DA7940225A7462B615E0F5
:1013500062B6274A27481278274D00781C46531C4E
:101360003F2B88BF0023E67983421CBFEE541A4608
:10137000013911F0FF01F2D11D4B1A701B4AD378CD
:1013800019465BB2002B1BDA1379180618D51B4BD4
:101390001B4C1D781B4B1B78AB4209D00133272B0C
:1013A00088BF00231079E05CD071107D0728F3D945
:1013B000144A13700D4B1A79120601D57C22DA708B
:1013C00001F04003DBB27BB1084B1A7902F0400216
:1013D000D2B2194642B10C4B00221A700B4B1B685B
:1013E00003B11A703C23CB7070BD00BF00B0064043
:1013F000B38EFF1F4A8EFF1F738EFF1FBC8EFF1F11
:101400004B8EFF1FB48EFF1F498EFF1FB88EFF1F2C
:10141000174B1A6842F480521A60164A0023137060
:10142000154A1370154A1370154A1370154A137034
:10143000154A40F2133111604FF451715160134A53
:10144000C0F344311170C0F3471100F01F00517018
:101450009072937013742C23D3700D4B40226FF451
:101460004B711A705B184FF400321A60704700BF5E
:1014700034800440278FFF1FBE8EFF1F308FFF1F59
:10148000288FFF1FBD8EFF1F08C0044000C006400C
:1014900031E400E0134A937800F0030103F0EC0319
:1014A0000B43410748BF43F01003937000F00F0354
:1014B000042B0C4903D18B7943F040038B71537992
:1014C000C20603F0EF03074A48BF43F0100353710D
:1014D0009379800603F0EF0348BF43F01003937144
:1014E000704700BF00C006400E4B1B68D80410B503
:1014F00003D410BD01F0CCF900E00B4C2378002B95
:10150000F8D10A4A4FF400311160094A0949D370F1
:1015100040F203120A604A60074A1370074A1370C8
:1015200010BD00BF34800440BD8EFF1F84E100E089
:1015300000C0064008C00440278FFF1FBE8EFF1F5B
:1015400038B5094B04461D78002DFCD120460121F9
:10155000FFF752FA20462946FFF722FA034B53F8C9
:101560003420034B1A6038BDBD8EFF1F14450000A8
:101570002C8FFF1F1D4B1B68DA042DE9F041074635
:1015800031D51B4B1B680BB101221A70194B1A4D38
:101590001C781A4EDFF868800134272C88BF00249D
:1015A00014E0FFF72FF840280CDC33791B060DD52B
:1015B0002B780133272B88BF002318F80320F27102
:1015C0002B7003E0FF2801DD01F062F92B78A342C4
:1015D000E7D00B4B1F550B4B01221A70054B1C70AB
:1015E000064BAC22DA70BDE8F08100BF34800440C5
:1015F0002C8FFF1F308FFF1F288FFF1F00C006405A
:10160000BF8EFF1FBD8EFF1F38B54518044603E08F
:1016100014F8010BFFF7AEFFAC42F9D138BDFFFF64
:1016200010B5044C01E001F033F92378002BFAD116
:1016300010BD00BFBD8EFF1F054B064A1B781078FA
:10164000834201D3273000E00138C01A704700BF41
:10165000308FFF1F288FFF1F044B1878044B1B7817
:10166000984238BF4030C01A704700BF278FFF1F15
:10167000BE8EFF1F084B094A19781378994207D08C
:1016800001333F2B88BF00230549C85C13707047A6
:101690004FF0FF30704700BF278FFF1FBE8EFF1F28
:1016A000E78EFF1F074B1A78074B1B789A4206D02C
:1016B00001333F2B88BF0023044AD05C70474FF0B2
:1016C000FF307047278FFF1FBE8EFF1FE78EFF1F63
:1016D000024B1A78024B1A70704700BFBE8EFF1F74
:1016E000278FFF1F10B5214B1A7902F02002D2B2CA
:1016F0006AB11F4AD8791F491378097801333F2B03
:1017000088BF00238B4202D01B49C8541370174A6C
:10171000D37818465BB2002B13DA1379190610D56B
:10172000164B17491C780B789C4202D16C23D3705E
:1017300007E00133272B88BF0023124CE45CD471EF
:101740000B7000F04003DBB27BB1084B1A7902F05A
:101750004002D2B2194642B10B4B00221A700B4B19
:101760001B6803B11A702C23CB7010BD00C006405B
:10177000278FFF1FBE8EFF1FE78EFF1F308FFF1FBB
:10178000288FFF1FBF8EFF1FBD8EFF1F2C8FFF1FD7
:101790001FB572B6154B70221A70154A412111708F
:1017A0000F2102F8011C80221A701A781206FCD54B
:1017B000104B186862B6104B984201D80A23584360
:1017C00001A90A22FEF744FF0C48002301AA9A5CF3
:1017D0002AB100EB430101330A2B4A80F6D10133D1
:1017E000064A5B00137005B000BD00BF0000024058
:1017F00007000240080002407F969800F487FF1F10
:10180000F0B50C4B0C4C1A7842F0020504EBC506FF
:1018100082F00102706009481A700678002E0CBF31
:101820008827C82747EA014186F0010644F83510A9
:101830000670F0BD9C8FFF1F0080FF1F1490FF1FDC
:10184000431E032B10B510D872B6094A52F8230074
:1018500048B1416842F82310064A018832F8134023
:10186000611A22F8131062B610BD002010BD00BF2F
:101870008C8FFF1FD092FF1F013803280BD872B640
:10188000064B53F82030002001E05B680130002B4C
:10189000FBD162B670470020704700BFE08FFF1F8A
:1018A00070B572B6184E194C01239A1912F8012C12
:1018B00002F00802D2B2E2B19900144A54F8315051
:1018C0002DB902EB431308305860114B09E041F089
:1018D000010154F8315065B902EBC103083058607A
:1018E0000C4B42F831300C4B1A78013A1A7062B640
:1018F00070BD0133052BD8D162B6074B00221A7098
:10190000BDE8704000F0D2BB244600000080FF1FFD
:1019100088004000C80040000A90FF1F431E032BB0
:1019200030B532D84001194A40F01000101872B694
:10193000174CE25C032A09D8DFE802F0160218050A
:101940000830022213E00830042210E01148124A45
:1019500050F8234014B940F8231002E052F8230055
:10196000416042F823100FE0032200E00522E25418
:1019700010F0080F01F108030A8843600CBF8823A8
:10198000C82343EA0243036062B630BD0080FF1FF4
:10199000488FFF1FE08FFF1FF08FFF1F2DE9F74FCC
:1019A000A54EA64C357805F00403DBB2ABB1A44BD1
:1019B0001B7883B1A34A137823B1013BDBB21370C8
:1019C00003B900BEA04A13782BB1013BDBB2137000
:1019D0000BB900F07FFC0423337005F00802D2B28B
:1019E000002A00F08082994B1B781D094FEA930969
:1019F00040F0FE8104EBC903586854F83930C3F352
:101A00008303013B0C2B00F2F081DFE813F0A90106
:101A1000A901EE01EE01EE01EE01EE01EE01C501BC
:101A2000EE01EE01EE010D004368894902684B604A
:101A3000884B894844F83930884D0A600023036098
:101A40000120287092B240F28165AA422361A3610D
:101A500017D8B2F5D06F80F02C81B2F5817F00F0FD
:101A6000DC8006D8802A00F0C280822A40F03D81C6
:101A7000C1E040F202339A4200F00C81B2F5A06F4F
:101A800016E042F22105AA4200F0678108D8B2F5BB
:101A9000086F00F0A680B2F5106F40F026810AE0D2
:101AA00042F22120824200F01C8142F221339A420C
:101AB00040F01B811DE18A78614B604D1A702B6AE2
:101AC000180603D5686A083800F0F0FA644A083549
:101AD0009542F4D1DFF8B091DFF8B0B10025A84607
:101AE000CA4655F8090005E04368009300F0DEFAA5
:101AF000009B18460028F7D15A4B4AF8050045F8D4
:101B00000B00E85807E042680093019200F0CEFA1B
:101B1000019A009B10460028F5D15851524BE850CD
:101B2000524B23F81800524B18F80320023A032AAC
:101B300008D8DFE802F002040204002200E00122DB
:101B400003F8082008F101080435B8F1040FC8D1E2
:101B5000484BDFF83C9100221A7001259846464B0D
:101B600005EB0902EB1812F8012C9B001A7002F029
:101B70000802D2B23AB300F07BFAAB0038B104EB02
:101B80004512083050603D4A44F8332006E044F8DE
:101B9000330098F80030013388F8003000F068FA1C
:101BA000AB0043F0010338B104EBC30208305060CE
:101BB000284A44F8332006E044F8330098F800300F
:101BC000013388F80030AA0042F00201013542F0EA
:101BD00003020023052D44F8313044F83230BED1E1
:101BE00088E0174B264D1B782B70034685E0244D6B
:101BF0002B706B7080E08A88042A00D975E0204D34
:101C00002B706B701F4B9200D3181B7803F00203EC
:101C1000DBB2002B70D028706EE08A8802F07F0360
:101C2000042B62DC4B8803B15FE09100154A8A18EF
:101C3000117821F0020156E0802007400080FF1F4C
:101C40001390FF1F9D8FFF1F1590FF1F90200740CF
:101C50000090FF1FC8004000348FFF1F1490FF1F2B
:101C60008080FF1FE08FFF1FF08FFF1FD092FF1FAC
:101C7000488FFF1F0A90FF1F30C8011088004000E6
:101C80000B90FF1FC02007408C8FFF1F388FFF1F56
:101C9000244600008A8802F07F03042B25DC4B8851
:101CA00003B122E09100A14A8A18117841F00201A3
:101CB00019E04A889E4B898853F8085CA3F10C0010
:101CC0009DB133F80CCC944509D133F80ACC8C453E
:101CD00005D1120A032A0CBF2B7803890DE00C33BF
:101CE000EAE78978934A117004E0904B0F221A704A
:101CF00033E000231D4600E002238F4AB2F806902D
:101D00004B4538BF9946B9F1400F34BFC8464FF034
:101D1000400828464146FFF773FDB9EB08094544E2
:101D200003D1B8F1400F07D017E0B9F1400F34BF2D
:101D3000C8464FF0400800E0C84628464146FFF735
:101D40005FFDB9EB0809454402D1B8F1400F04D159
:101D50007A4B7B4A1D60A2F800900122794B43E048
:101D6000754B1A8842F221039A4211D1764A002318
:101D7000C15C99540133072BFAD1734B1B68862B36
:101D800002D1724B0F221A7000200146FFF738FD76
:101D90006F4B44F8393028E0684BD3F80080B8F135
:101DA000000F18D0DFF89891B9F800A0BAF1400FF1
:101DB00034BF5546402540462946FFF721FDC5EB77
:101DC0000A039BB2A9F800300BB9402D01D108EBF2
:101DD00005035A4A1360584B1A88B2F5A06F04D114
:101DE00000225A709A785B4B1A700122554B6DE0B5
:101DF00004EBC90803F00803D8F80420013DD9B268
:101E0000A2F10800EDB2002937D000F04FF9524896
:101E1000524B50F82510F1B14A6840F8252001F1E5
:101E20000802C8F804205A5D032A0BD8DFE802F044
:101E300002040608032204E0022202E0052200E078
:101E400004225A5518F0080F0A880CBF8823C823AB
:101E500043EA024342E05A5D032A07D8DFE802F072
:101E600040400204002206E0012204E018F0080FBE
:101E70000CBF022203225A5532E054F839301B0CB1
:101E800022F8083C23B322F8061C42F8041C344A0A
:101E9000344952F8257017B942F8250002E051F88C
:101EA00025205060304A41F8250032F815105B18A3
:101EB00022F8153000F0DCF818B10830C8F804003A
:101EC00006E02A4B44F839001A7801321A7007E00C
:101ED0001F4B274A18F0080F08BF134644F8393043
:101EE000082333705EE5E90752D516492048214C96
:101EF00002230B70204B1A70204B1860986020480A
:101F00001A61D8609A615C60084B0D2018701D48FA
:101F1000FF23037000F8083C02741B4A13701B4B2C
:101F20009F221A7001230B704BE000BFC0200740B6
:101F3000344600002490FF1F0090FF1F348FFF1FC6
:101F40000890FF1F94200740D892FF1F9D8FFF1F0E
:101F5000C800400098200740E08FFF1F488FFF1FF8
:101F60008C8FFF1F388FFF1FD092FF1F0A90FF1F1B
:101F7000880040004C8FFF1F9C8FFF1F0080FF1FB9
:101F8000A08FFF1F882007408C2007408420074037
:101F90002B0605D50C4B0D221A70802203F8402C1D
:101FA00005F00203DBB22BB1084B1A781A7002223B
:101FB00003F8082C05F01005EDB215B1044B102202
:101FC0001A70BDE8FE8F00BFC02007408820074080
:101FD0008020074008B5FFF7DBFB00231E491A46A7
:101FE0005A50C8180833882B4260F9D11B4B1A6825
:101FF00042F480221A601A4B80221A701978184A0B
:102000000906FBD4144B1749C3F307200870C3F328
:1020100007401B0E08750B76FF2301F81C3C01F8E6
:10202000143C01F88C3C137843F0400313700021FA
:10203000012302F8783C02F80C1C02F8883C0A4B99
:1020400070226FF4507C1A7063444FF400721A606F
:10205000064B10221A7008BD0080FF1F3480044018
:102060000C2107409C20074049E400E0082107407C
:1020700072B60C4A1168B1FA81F30B2B02D962B621
:10208000002070474FF0004020FA03F021EA0001E1
:10209000116062B6044948225343C8180022CA504E
:1020A000426070470C88FF1F0084FF1F0C4B4822C2
:1020B000C31AB3FBF2F30B2B11D80A4A127822B1E0
:1020C000094A12780AB1FFF7EBBB72B6074A4FF024
:1020D000004121FA03F311681943116062B6704799
:1020E0000084FF1F0A90FF1F1390FF1F0C88FF1F23
:1020F00038B5114C23684BB10F4D286842888118C0
:1021000001320C7A01888A4212D30CE00B4B1B7807
:1021100013B94FF0FF340CE00320FFF791FB206070
:102120000028E9D1F5E7FFF7C1FF00232B6000E0AD
:102130004280204638BD00BF2090FF1F1390FF1F34
:1021400010B50C4C23681BB10A4B1B686BB902E03D
:10215000094B1B7813B94FF0FF3010BD0320FFF778
:102160006FFB20600028EFD1F5E75A889B18187A9A
:1021700010BD00BF2090FF1F1390FF1F044B9888D5
:10218000044B1B681BB11A885B88D31AC0187047B0
:10219000D092FF1F2090FF1F2DE9F8432D4B2E4DAD
:1021A000DFF8C08001220C461A7006464BE02B680F
:1021B0002BBBDFF8A0904AF2F92798F8003013B94A
:1021C000244A137014E00420FFF756FB072808D8B0
:1021D000012389F80030FFF74BFF286078B989F8B0
:1021E0000000013F1D4B01D01A782AB101221A705C
:1021F0004FF0FF30BDE8F88300F04AFBDDE72968C7
:10220000164A488800231370C0F14002944238BF38
:10221000224600F108078018CF194880A41A02E06E
:10222000F05CF85401339342FAD1F6184B883F2BF7
:1022300006D940230B800420FFF770FB00232B609E
:10224000074B05221A70002CB1D1024B20461C709E
:10225000BDE8F8831690FF1F1890FF1F1C90FF1F0A
:102260001590FF1F1390FF1F07B502AB012103F864
:10227000010D1846FFF790FF0EBDFFFFF8B5114B9B
:102280001B78EBB1104E114B3468114D01271F70B4
:102290004CB1638800272F70042023802146FFF76C
:1022A0003DFB376009E0FFF7E3FE014620B1042063
:1022B0002C70FFF733FB00E02F70044B00221A70E4
:1022C000F8BD00BF1390FF1F1890FF1F1690FF1F4F
:1022D0001590FF1F38B50D4B1D78ADB90C4C21681A
:1022E00031B14B8804200B80FFF718FB256038BD07
:1022F000FFF7BEFE014620B10420BDE83840FFF7DD
:102300000DBB044B01221A7038BD00BF1690FF1F91
:102310001890FF1F1590FF1FF8B5164B164D1A6841
:1023200042F080721A60154B1A6842F001021A607E
:10233000134B2E681C680FE0237A63B121682F6865
:102340000B68204698472A68E388D21B12099A42F4
:10235000A28088BFE2806469002CEDD1064B094A57
:102360001B689B1B1B091380074A11888B4288BF7F
:102370001380F8BDFCED00E0041000E0001000E068
:102380002890FF1F2E90FF1F2C90FF1F08B5036899
:10239000C9B21B68984708BD08B50368C9B21B6875
:1023A000984708BD08B50368C9B21B68984708BDBF
:1023B00008B50368C9B21B68984708BD084608B548
:1023C000FEF760FC012008BD084608B5FEF75AFC80
:1023D000012008BD38B508460D46FEF731F9044620
:1023E00021462846FEF798FC204638BD10B5084621
:1023F00014461146FEF790FC204610BDFEF7F4BCD3
:10240000FEF73EBDFEF7E4BCFEF70CBDFEF722BDB5
:10241000FEF7FABC0846FEF71BBCFEF7EDBB48080A
:1024200000F1376000F5D830B0FBF1F0FEF774BB77
:10243000480800F1376010B500F5D830B0FBF1F076
:102440001446FEF769FB2046BDE81040FEF7AABB24
:102450007047FFFF044B00221A711A73034A4FF4AE
:102460007A7199601A6070473090FF1F88460000AB
:1024700008B50368C9B21B68984708BD08B503686A
:10248000C9B21B68984708BD08B50368C9B21B6884
:10249000984708BD08B50368C9B21B68984708BDCE
:1024A000084608B5FEF72CFE012008BD084608B511
:1024B000FEF726FE012008BD38B508460D46FEF79A
:1024C000BFF8044621462846FEF764FE204638BD84
:1024D00010B5084614461146FEF75CFE204610BDB6
:1024E000FEF7C0BEFEF70ABFFEF7B0BEFEF7D8BECD
:1024F000FEF7EEBEFEF7C6BE0846FEF7E7BDFEF7E6
:10250000B9BD480800F1376000F5D830B0FBF1F0F4
:10251000FEF740BD480800F1376010B500F5D8302F
:10252000B0FBF1F01446FEF735FD2046BDE8104043
:10253000FEF776BD7047FFFF044B00221A711A7335
:10254000034A4FF47A7199601A6070474090FF1FF8
:10255000D846000008B50368C9B21B68984708BD93
:1025600008B50368C9B21B68984708BD08B5036879
:10257000C9B21B68984708BD08B50368C9B21B6893
:10258000984708BD084608B5FEF7F4FF012008BDCE
:10259000084608B5FEF7EEFF012008BD38B508462D
:1025A0000D46FEF74DF8044621462846FFF72CF865
:1025B000204638BD10B5084614461146FFF724F8EA
:1025C000204610BDFFF738B8FFF782B8FFF728B8EC
:1025D000FFF750B8FFF766B8FFF73EB80846FEF7BA
:1025E000AFBFFEF781BF480800F1B76000F5584063
:1025F000B0FBF1F0FEF70CBF480800F1B76010B572
:1026000000F55840B0FBF1F01446FEF701FF2046FC
:10261000BDE81040FEF73EBF7047FFFF044B0022AD
:102620001A711A73034A4FF47A7199601A607047ED
:102630005090FF1F284700002DE9F0410024074675
:102640000D4626463B190A2219792846002300F038
:10265000A9F82B6880462E211B682846984701342C
:102660004044032C0644EDD12846F9790A22002380
:1026700000F098F88019BDE8F081FFFF044B054A8F
:102680001A6000221A715A719A71DA71704700BF8C
:102690006090FF1F7847000008B5034B01221A60C5
:1026A000024B1B68984708BD0C7103407090FF1FD8
:1026B00008B5034B01221A60024B5B68984708BDBE
:1026C0001C7103407090FF1F08B5034B01221A6074
:1026D000024B9B68984708BD2C7103407090FF1F08
:1026E00008B5034B01221A60024BDB68984708BD0E
:1026F0003C7103407090FF1F054B01221A60054B8F
:102700001A6822F400021A60034B00221A70704704
:10271000007003403C8004406C90FF1F037B01224B
:10272000591103F01F0302FA03F3084A42F821305B
:102730008268002313604178054A5354D15C21B963
:102740000133042BFAD1FFF7D7BF704780E100E0D7
:102750006890FF1F037810B504460BB1FFF7DEFF4A
:102760000023237010BDF8B506460C468F180025CF
:1027700006E0336814F8011B1B68304698472D1893
:10278000BC42F6D12846F8BD07B5054B1B88ADF80D
:102790000430036801A95B68022298470EBD00BFA0
:1027A00080470000F0B505468BB022B90368C9B276
:1027B0001B6898472CE0012A08BF0A2221B9302261
:1027C0008DF82520212413E02124B1FBF2F002FB37
:1027D0001011C9B2092901D8303100E037310AAFF0
:1027E0003E1906F8241C014610B1013CE4B2ECE7A6
:1027F00033B1013C0AAAE4B213192D2203F8242CA8
:102800002B6801AF5B6828463919C4F1220298474A
:102810000BB0F0BD002902DA49422D2300E000236D
:102820000A22FFF7BFBF10B50446FFF793FF20460B
:1028300010BDFFFF04480549054A002303708023AB
:10284000437301F08BB800BF8090FF1F2728000062
:102850006087FF1F08461146FFF79EBC0846FFF73A
:1028600003BDFFF70BBDFFF76BBCFFF741BCFFF7E4
:1028700085BC7047044B00221A711A73034A4FF447
:102880007A7199601A6070479490FF1F904700001A
:1028900008B50E4B1A78C2B901221A70FFF76EFC08
:1028A00008B1FFF7E6FFFEF7AFFA08B1FFF7D0FD7A
:1028B000FEF7E8FC08B1FFF73DFEFEF7CDFE08B1DC
:1028C000FFF7AAFE014B00221A7008BDA490FF1F5B
:1028D0000A4A1368834270B50FD0094B094C196836
:1028E00011F4804F40F0804502D01060256070BD2B
:1028F000054E1E6010602560196070BD0CC002405E
:1029000000C0024010C0024001401F00094B1A687D
:1029100042F480521A60084B1B6803F0E0629B018E
:1029200005D520F4704300F4704043EA10101043C2
:10293000FFF7CEBF3C8004400CC00240034B188818
:10294000034B1B88C01A00F03F0070470C91FF1F1B
:102950000891FF1F0B4B19880B4B1A8889B292B252
:1029600091420BD01A88094992B2885C1A880132C8
:102970001A801A8802F03F021A8070474FF0FF3029
:10298000704700BF0C91FF1F0891FF1FC790FF1FEA
:10299000074B1988074B1A8889B292B2914204D02A
:1029A0001B88054A9BB2D05C70474FF0FF307047E0
:1029B0000C91FF1F0891FF1FC790FF1F704738B58C
:1029C000044608460D46FDF73BFE236802465B6859
:1029D00020462946984738BD08B5FFF7F0FF08BDE7
:1029E00038B50446FFF7EBFF05462046FFF7CCFE5F
:1029F000281838BD38B5D2B200230446FFF7D2FEFE
:102A000005462046FFF7C0FE281838BD0A2A38B50B
:102A1000054602D1FFF7FEFE03E0D2B20023FFF726
:102A2000C1FE04462846FFF7AFFE201838BDFFFF61
:102A300038B505460C460A480A49FFF7C0FF294643
:102A40000748FFF7BCFF08490548FFF7B8FF2146D4
:102A50000348FFF7DFFE02480449FFF7B0FFFEE737
:102A60009490FF1F58480000D24900003E4A0000E1
:102A7000F0B500230B480C4D0C4E0FE004882F8856
:102A8000013404F03F04BFB2BC4206D0078811F8FD
:102A900003C00480BFB206F807C001339342EDDBE8
:102AA000F0BD00BF0C91FF1F0891FF1FC790FF1FD3
:102AB00070B54FF47A7686600A4E80F82130066051
:102AC00001260676084EC17700253580074E057130
:102AD000057345610561358086250446857780F854
:102AE000202070BD404800000891FF1F0C91FF1F7F
:102AF00010B514480C46092100F056FD08B32378A0
:102B0000013B032B1CD8DFE803F002071217012159
:102B10000C4800F097FD0DE0B4F80100B4F8031084
:102B2000B4F80520B4F8073000F0D2FD02E0064BFF
:102B300000221A70012010BD034B0120187010BD37
:102B4000002010BD1091FF1F4891FF1F2DE9F84391
:102B5000A44D04462946A44800F0DCFD002800F0FE
:102B60003081AB78813B0C2B00F22B81DFE813F036
:102B70000D00290107013800560084002901680072
:102B80007900E30029019100E800974B6A795A77B0
:102B9000EB78022B03D0032B40F0138107E093481E
:102BA0009349FFF71DFF934B01221A7009E18F48EB
:102BB0009149FFF715FF8B4B187948B11420FDF7A9
:102BC00055FF237E002B00F0FC8088488B49F6E0FF
:102BD000502100F027FD8123A37784488849EEE047
:102BE0002B79804C8BB187498048FFF7F5FE102286
:102BF000E1787E48FFF70AFF83497C48FFF7ECFE47
:102C00007A4821791022FFF701FF764AD378092B01
:102C100040F0D7807448022105322AE07B4973488E
:102C2000FFF7DEFE7A4B01221A707A4B00221A70EF
:102C30006D4B5A7FDA7700F0C3FC8523A377C0E0A1
:102C400075496A48FFF7CCFE6748082100F0ACFCE4
:102C5000002800F0B6806F4C2378002B40F0B18044
:102C6000BBE06E496148FFF7BBFE5F486C4A0B2131
:102C7000062300F0B1FCA4E08623A37769495B48F2
:102C8000FFF7AEFE0020502100F0CCFC8123A3779B
:102C900093E065495548534EFFF79EFEE978534847
:102CA0000A22FFF7A7FE6A78023A2046311DD2B207
:102CB000FFF7DEFE636923B171780239301DC9B2B6
:102CC0009847484EF378072B29D148485749DFF8F1
:102CD0001C91DFF87881FFF77FFE00250FE0771960
:102CE000D9F80030F9781B684048984708EB05038D
:102CF000FA783E4803F8012C4D49FFF76DFE7378D2
:102D0000023B9D4205F10105E9DB4A4A4A49374841
:102D10001370FFF765FE3448082100F045FC314987
:102D2000CB780A2B4DD14A78023A20460431D2B2F0
:102D3000FFF7DEFE45E02C4BE978DA7F8A181CE0CD
:102D4000237E9BB1274C3D492848FFF745FE0A22C8
:102D5000E17826480023FFF725FD39492348FFF78E
:102D60003BFE224821791022FFF744FE1D4B1B79C0
:102D7000922B26D01C4BDA7F0132DA7721E03149E1
:102D80001A48FFF729FEB5F803101848154D0A2216
:102D9000FFF73CFE002405E02B1901345879FFF7BA
:102DA00063FAE4B26B78023BA342F5DC0F48FFF70D
:102DB000EBFC0020502100F035FC0C482249FFF7C5
:102DC0000FFE0C4C2378002B42D0074800F0A8F9E6
:102DD00000283DD12070BDE8F88300F08DFC012370
:102DE0002370EEE7A590FF1F1091FF1F9490FF1F27
:102DF0005F4800000791FF1F7948000095480000D8
:102E0000A8480000F4480000014900001A490000E9
:102E10004891FF1F0E91FF1F28490000384900000C
:102E2000A890FF1F5D490000B9490000C749000094
:102E3000B24A00000A91FF1F3F4A0000D549000036
:102E4000F1490000074A0000844900004A91FF1F31
:102E5000BDE8F88373B506468DF80710134814498A
:102E6000144CFFF7B9FD9DF8071010481022FFF72A
:102E7000C1FD2046082100F097FB054680B10820DF
:102E80000DF10701012200F0FBFB20B1E37F013BC4
:102E9000E377012400E004462320FDF7E7FD03E08B
:102EA0003046FFF753FE2C4620467CBD9490FF1F12
:102EB000124A00001091FF1F10B5044618B90648C9
:102EC0007721FFF7B5FD94F8840094F88530C31A94
:102ED0005842584110BD00BF5A4A000038B50D464F
:102EE000044618B913482F21FFF7A2FD1DB9114858
:102EF0003021FFF79DFD2046FFF7DEFFC0B994F8B3
:102F00008430212202FB0343294603F1200253F8B7
:102F1000040B934241F8040BF9D11B780B7094F821
:102F20008430013303F0030384F88430012038BD7A
:102F3000002038BD5A4A000010B5044618B90648AA
:102F40008621FFF775FD94F8840094F88530C21A45
:102F50005042504110BD00BF5A4A000038B50D46DE
:102F6000044618B913483F21FFF762FD1DB9114807
:102F70004021FFF75DFD2046FFF7DEFFC0B994F862
:102F80008430212202FB0343294603F1200253F837
:102F9000040B934241F8040BF9D11B780B7094F8A1
:102FA0008430013303F0030384F88430012038BDFA
:102FB000002038BD5A4A000010B5044618B9074829
:102FC0009021FFF735FD94F8853094F884000133A3
:102FD00003F00303C11A4842484110BD5A4A000099
:102FE00070B50D464E78044618B90F485121FFF7C9
:102FF0001FFD2046FFF7E0FF98B994F885302122A5
:103000005343E218E054691C501C721C00F0BEFFD0
:1030100094F88530013303F0030384F885300120F0
:1030200070BD002070BD00BF5A4A000090F8853086
:1030300090F88400013303F00303B0EB030CDCF1E0
:10304000000050EB0C00704770B50D464E780446FA
:1030500018B90F486421FFF7EBFC2046FFF7E6FFA5
:1030600098B994F8853021225343E218E054691C42
:10307000501C721C00F08AFF94F88530013303F075
:10308000030384F88530012070BD002070BD00BFAF
:103090005A4A000038B50D46044618B91048B02108
:1030A000FFF7C6FC1DB90E48B121FFF7C1FC204651
:1030B000FFF702FF88B994F88430212000FB034019
:1030C000294600F1200350F8042B984241F8042BC4
:1030D000F9D1037801200B7038BD002038BD00BF46
:1030E0005A4A000070B506460C46002510E0736988
:1030F0000A4801EB411159184A78023200F046FFA4
:10310000064800F021FA38B12378013323700125F5
:103110002178337E8B42EAD8284670BD7092FF1F1B
:10312000F7B5002305468DF8073000F02CFB60B39F
:103130001B4800F0EDFA044648BB28460DF1070194
:10314000FFF7D0FF174F23460134BB4221D8144E5E
:10315000304600F0DDFA23460028F5D0B378842B02
:1031600019D13679012E02D0022E16D105E028465B
:103170000DF10701FFF7B6FF00242846084900F0CB
:10318000C9FA022EDFD1002008E0012006E002206B
:1031900004E0032002E0052000E00420FEBD00BFA3
:1031A0007092FF1FFEFF0F0001230370092343707D
:1031B0007047931C03700D23437011F8013B0330DB
:1031C00000F8013C00F0E2BE052303700F234370BA
:1031D0000B881B12C3700B8883704B881B124371C2
:1031E0004B880371704702230370112343700B78DF
:1031F00083707047931C03701523437011F8013BD3
:10320000033000F8013C00F0C1BE09230370132312
:1032100043700B881B12C3700B8883704B881B1282
:1032200043714B8803718B881B12C3718B88837128
:10323000CB881B124372CB88037270470123037043
:10324000132343707047FFFF024B1B68587800211F
:10325000FDF7A6BB6091FF1F70B545780A2229468D
:10326000002306460F48FFF79DFA0E480E49FFF768
:10327000A6FB00243319102259780A480023013490
:10328000FFF790FAE4B207480849FFF798FBAC4211
:10329000F0D907490348FFF792FB0248BDE87040A8
:1032A000FFF772BA9490FF1FAE4A0000B14A0000C7
:1032B0003F4A00002DE9F041DFF860C0154E164F7F
:1032C000002A0CBF4FF064524FF06052002434F8D3
:1032D000078056F814509CFBF8F8414504D303F0DE
:1032E0000801C9B221B905E002342E2CEFD1F6E76E
:1032F00042F0806203F00403DBB23BB125F470437B
:1033000005F4704542F0007243EA15152A43026045
:10331000BDE8F081D8470000A8470000006CDC023F
:1033200010B50446FFF7C6FF204610BD064B4FF010
:1033300000421A60054A10601A68002AFCDA044B41
:103340001868C0B2704700BF2CC0024034C00240B1
:1033500038C00240F8B505460E46FFF775FF68789D
:10336000FFF7E4FF3070A878FFF7E0FF70706B782C
:103370001BB1834201DD581EC0B21F2828BF1F2089
:10338000C7B2002406E02B19D878FFF7CFFF331916
:1033900001349870E3B2BB42F5D3054B1B680121A1
:1033A0005878FDF7FDFA381C18BF0120F8BD00BFA2
:1033B0006091FF1F00B593B016486946FFF7CEFD38
:1033C00018B98DF800008DF80100684609A9FFF7CB
:1033D000C1FF1148FFF72AFE18B90E48FFF7ACFDF0
:1033E00090B19DF8253093B10B4809A9FFF72CFE49
:1033F00000B9FEE70848FFF719FE40B1074B1B680C
:10340000D87AFDF781F902E0FFF71EFFE9E713B074
:1034100000BD00BFEA91FF1F6491FF1F6091FF1F75
:1034200000B51A4893B0FFF7C7FD68BB184B1B687F
:103430009878FDF7D5FA0128164805D1FFF73CFD2D
:1034400010BBFFF701FF1FE06946FFF747FD18B902
:103450008DF800008DF80100684609A9FFF77AFF92
:103460000A48FFF7A9FD18B90A48FFF725FD40B142
:103470009DF8253043B1054809A9FFF7B1FD18B9FA
:10348000FEE7FFF7E1FEF3E713B000BD6491FF1F15
:103490006091FF1FEA91FF1F064B1B689B7A10B5D6
:1034A00004460BB9FFF7BCFF03482146BDE81040B6
:1034B000FFF7F0BD6091FF1F6491FF1F38B51B4BF4
:1034C0001B689B7A04461BB91948FFF775FD28B3A2
:1034D0001748FFF771FD214605461548FFF7FEFC2A
:1034E00010B3144B1B7833B113481449FFF767FA34
:1034F0002046FFF7B1FE45B10C4B1B689A7A22B10A
:10350000D87A0F490022FDF7D5F80948FFF754FD96
:1035100048B90C48FFF7D0FC28B902E0FFF780FF5C
:10352000D6E7FFF791FE012038BD00BF6091FF1F75
:103530006491FF1F5E91FF1F9490FF1FB44A00002B
:10354000B5330000EA91FF1F38B543781F2B0546BD
:1035500001D9002416E00C482946FFF741FD044636
:103560000028F6D00948FFF727FD08B9FFF76CFEE1
:10357000074B1B7833B107480749FFF720FA284665
:10358000FFF76AFE204638BDEA91FF1F6491FF1FD6
:103590005E91FF1F9490FF1FB74A00000148FFF79C
:1035A0008BBC00BFEA91FF1F00EBD10001F00701C7
:1035B00090F8260040FA01F000F001007047FFFF8C
:1035C00010B5044C601CFFF7EFFD2046BDE810402D
:1035D000FFF7BABF7092FF1F30B51D460E4B481E55
:1035E0001B6813F82030012B87B012D1142D10D88E
:1035F00006AC04F8181D1146601C2A4600F0C6FCF3
:10360000064869462A46FFF7D4FD0548FFF79CFFA8
:1036100000E0002007B030BD9492FF1F7192FF1FA1
:103620007092FF1F13B5064CADF80400ADF80610FC
:10363000601C01A9FFF7C8FD2046FFF785FF1CBDF0
:103640007092FF1F13B502AA044602F8041D0A482F
:103650001146FFF7C8FD0948FFF776FF58B123462A
:1036600008220021013A83F8261083F82E10013336
:1036700012F0FF02F6D11CBD7192FF1F7092FF1F66
:10368000104B1B6830B503EB800387B033F8023C66
:10369000022B154601D0042B11D1142D0FD806ACE6
:1036A0002A4604F8180D601C00F070FC06486946B4
:1036B0002A46FFF79FFD0548FFF746FF00E0002080
:1036C00007B030BD9492FF1F7192FF1F7092FF1FD1
:1036D00013B5084CADF80000ADF80210601C694647
:1036E000ADF80420ADF80630FFF78FFD2046FFF758
:1036F0002BFF1CBD7092FF1F10B5044C601CFFF720
:103700009DFD2046BDE81040FFF71EBF7092FF1FD1
:10371000FFF7C2BE38B5044608460D46FFF7CEFE99
:1037200000282FD0AB78882B04D0892B21D0862B72
:1037300028D10DE000230135EA180133917884F88F
:103740002610927A013484F82D20082BF4D138BD4C
:10375000234608220021013A83F8261083F82E1010
:10376000013312F0FF02F6D1637F84F83620E3774D
:1037700038BDB5F803302384B5F805306384B5F857
:103780000730A38438BDFFF709BF10B580F85C325D
:103790009DF8083080F85D2280F85E324023C370C7
:1037A0003F23002403710123C0F86042C0F858127F
:1037B00004728470C0F84C42C0F8504280F84A321B
:1037C000224603190434C82CC3F86422F9D100231B
:1037D000C37110BD37B59DF8185004460095FFF72A
:1037E000D4FF20463EBDFFFF37B5002304460A49FB
:1037F000012201A8FFF794FD0198FFF787F82588BB
:103800001F356D09002403E00020FFF78FFD013410
:10381000A3B29D42F8D13EBD80841E0010B504467F
:103820000021407AFDF7E8F80021207AFDF7E4F85E
:103830000023237263720123A372E37A012B04D164
:103840002046BDE81040FFF7CFBF10BD00232DE993
:10385000F04104464380038040680E4608B100F002
:10386000C1F80325754306F11F07ADB2C7F347172B
:1038700005EB07081FFA88F8404600F0ABF86060D7
:1038800070B180212A462680A4F8028000F038FC1E
:103890006068002140193A46BDE8F04100F030BCB4
:1038A000BDE8F081002310B504464360C372FFF702
:1038B000CDFF2046FFF7B2FF204610BDF8B5064603
:1038C0000F46550800240FE001213046FDF768F847
:1038D0002846FDF7CBF830460021FDF761F8284671
:1038E000FDF7C4F80134E4B2BC42EDD1F8BDFFFFEE
:1038F00000B50E4BADF55B7D0D2001211870FDF775
:103900007BF8032209230A2106A8FFF7D1F8D0216A
:1039100003A8FFF7C7FF2F2300930FA806A92C22A7
:103920003B23FFF757FF0DF55B7D00BD9892FF1F0E
:1039300008B5054B012118781422FFF7BFFF0A20B4
:10394000BDE80840FDF792B89892FF1F08B5FFF751
:10395000CFFFFFF7EDFFFEF79BFFFAE703460846B0
:10396000194600F001B800BF30B405460C461346B6
:1039700002202946224630BC00F040BC70B544F617
:10398000303644F63035C0F20006C0F20005761B32
:10399000B61007D0043D002455F8043F0134984781
:1039A000A642F9D144F64C3644F63035C0F2000652
:1039B000C0F20005761B01F0B5F8B61008D0043D42
:1039C000002455F8043F01349847A642F9D170BD50
:1039D00070BD00BF48F610030146C1F6FF731868BA
:1039E00000F008B848F610030146C1F6FF731868E6
:1039F00000F0C6BC2DE9F04F01F10B04162C83B08A
:103A0000074630D924F00704E30F8C422CBF194637
:103A100043F0010100292FD1384600F0D7FBB4F55F
:103A2000FC7F2ED24FEAD40C48F60416C1F6FF767E
:103A300006EBCC02D368934200F01182596803F17F
:103A40000808DA68384621F0030499681B195C6895
:103A5000CA6044F0010491605C6000F0B9FB40462C
:103A600003B0BDE8F08F002310248C422CBF194610
:103A700043F001010029CFD00C234FF000083B6038
:103A8000EDE75FEA542C04BF4FEAD40C4FEA4C0533
:103A900040F08F8048F60416C1F6FF7606EB8505E8
:103AA000EB689D4206D10DE0002A80F25581DB686B
:103AB0009D4207D0596821F003010A1B0F2AF3DD4C
:103AC0000CF1FF3C0CF1010C48F604123369C1F60D
:103AD000FF7202F1080E734508BFD2F8049022D09D
:103AE000586820F00300011B0F2900F3848100298E
:103AF000C2F814E0C2F810E066DAB0F5007F80F09A
:103B00004E81C1084FF0010802EBC100891008FA8C
:103B100001F851688568D86048EA0109C2F8049044
:103B20009D60EB60836001224FEAAC0302FA03F36D
:103B30004B4554D819EA030F0DD193402CF0030CD8
:103B400019EA030F0CF1040C05D15B000CF1040C15
:103B500019EA030FF9D006EBCC09E0464846C268E3
:103B6000904207D15BE1002980F28381D2689042C4
:103B700000F05581556825F00305291B0F29F2DD5A
:103B800090461319D56844F0010058F8084F41F0E9
:103B9000010C50603846C3F804C0E560AC60736146
:103BA0003361C3F80CE0C3F808E0595000F010FB93
:103BB00055E7BCF1040F00F2DE804FEA941C0CF1D3
:103BC000380C4FEA4C0565E71A1803F10808384627
:103BD000536843F00103536000F0FAFA3FE7B56819
:103BE0006B6823F0030A544504D8C4EB0A030F2B77
:103BF00000F3A48049F29C29D6F80814C1F6FF7995
:103C000005EB0A020131D9F80030234408BF03F163
:103C1000100B06D003F580530F3323F47F6323F09A
:103C20000F0B38465946019200F0D4FA019A411C14
:103C3000804600F06881824200F23181D9F8043078
:103C400042455B44C9F8043000F06681D6F8081498
:103C500048F60410C1F6FF70013117BFC2EB08022D
:103C6000C0F808849B18C9F8043018F007033846D8
:103C70001FBFC3F10802C3F58053904403F108024B
:103C800008EB0B0308BF4FF480521B051B0DC3EB61
:103C9000020B594600F09EFA431C00F04981C8EB24
:103CA0000001594441F00101D9F80430B54249F20C
:103CB0009C22C6F808805B44C1F6FF72C8F8041065
:103CC000C9F8043018D0BAF10F0F40F20B81AAF1F5
:103CD0000C00696820F007004FF0050C05EB000EA2
:103CE0000F2801F0010140EA01016960CEF804C02B
:103CF000CEF808C000F2208149F29C22D9F82C109D
:103D0000C1F6FF72B5688B42D9F8301088BFD36214
:103D100049F29C22C1F6FF728B4288BF13636A6826
:103D200022F003029442C4EB020301D80F2B05DCFE
:103D300038464FF0000800F04BFA90E62A1943F09D
:103D4000010344F0010438466C6005F10808536033
:103D5000B26000F03DFA82E65918DA689C6838468D
:103D60004D6803F1080845F00105E26094604D607C
:103D700000F02EFA73E6BCF1140F9CBF0CF15B0C43
:103D80004FEA4C057FF686AEBCF1540F00F29380EB
:103D90004FEA143C0CF16E0C4FEA4C057AE6420AED
:103DA000042A75D9142A9CBF02F15B094FEA490520
:103DB00008D9542A00F2C9804FEA103909F16E0976
:103DC0004FEA490506EB850548F60418C1F6FF7869
:103DD000AA68AA4279D0516821F00301884202D230
:103DE00092689542F7D1D068D6F80490D8609A606E
:103DF000D360836097E61D1941F00106556144F0D8
:103E00000104156138465C6003F10808C5F80CE050
:103E1000C5F808E06E60695000F0DAF91FE608F1B5
:103E20000108083018F0030F7FF499AE4A461CF0E1
:103E3000030FA2F108010CF1FF3C00F09E80126814
:103E40008A42F4D072685B0093423FF6C8AE002B02
:103E50003FF4C5AE1A4200F09580C4467BE603F1FC
:103E600008025B699A4208BF0CF1020C3FF42CAEC9
:103E7000E4E590465519D368384658F8082F696824
:103E8000D36041F001019A60696000F0A1F9E6E5B4
:103E90004FEA901909F138094FEA490592E7B5420E
:103EA00048F60413C1F6FF733FF4C8AE9D686A6814
:103EB00022F0030236E7BCF5AA7F19D84FEAD43CBA
:103EC0000CF1770C4FEA4C05E4E50125D8F8041015
:103ED0004FEAA909104605FA09F545EA0109C8F8AB
:103EE000049083E701234546C8F80430002219E70F
:103EF00040F254539C450BD84FEA944C0CF17C0C87
:103F00004FEA4C05C6E5B5686A6822F0030209E786
:103F1000FC254FF07E0CBDE51105090D00297FF44D
:103F200095AEB2680BEB0A0141F001015160E3E686
:103F300001214FF0000BB7E6384605F10801019268
:103F400000F01EFA019A5368D6E6B2F5AA7F06D8A9
:103F50004FEAD03909F177094FEA490532E740F2D3
:103F60005451FC258A424FF07E099EBF4FEA90498A
:103F700009F17C094FEA490524E7726822EA030245
:103F8000726060E75B0008F1040863E7032A2DE92B
:103F9000F00F09D82AB10023CC5CC45401339342FA
:103FA000FAD1BDE8F00F7047830702440ED0441CDD
:103FB0004D1C15F8017C04F0030623460134294604
:103FC000013504F8027C002EF3D100E0034611F025
:103FD00003046DD0D71A0D1B032F2E6819DDC4F111
:103FE000040C4FEAC4081C1D4FEACC0C55F8047FA2
:103FF000C4EB0209234604310434B9F1030F26FA55
:1040000008FA07FA0CFB3E464BEA0A0744F8087C1C
:10401000ECDC9A42C5D901330131013211F8014C6F
:1040200001330131934203F8024CF7D1B9E70C6830
:104030004033403143F8404C51F83C4C43F83C4C41
:1040400051F8384C43F8384C51F8344C43F8344C60
:1040500051F8304C43F8304C51F82C4C43F82C4C70
:1040600051F8284C43F8284C51F8244C43F8244C80
:1040700051F8204C43F8204C51F81C4C43F81C4C90
:1040800051F8184C43F8184C51F8144C43F8144CA0
:1040900051F8104C43F8104C51F80C4C43F80C4CB0
:1040A00051F8084C43F8084C51F8044C43F8044CC0
:1040B000D41A3F2CBBDC11E00C681033103143F8EC
:1040C000104C51F80C4C43F80C4C51F8084C43F888
:1040D000084C51F8044C43F8044CD41A0F2CEBDC78
:1040E000032C96DD1C1D0D1D55F8047C161B234664
:1040F000294604340435032E44F8087CF4DC88E7B0
:10410000032AC9B270B408D82AB10346121803F8BA
:10411000011B9342FBD170BC70478307024409D056
:10412000441C04F00305234604F8011C0134002D4F
:10413000F7D100E00346D51A01EB01243F2D04EB33
:1041400004442CDD1C604033D51A43F83C4C3F2D11
:1041500043F8384C43F8344C43F8304C43F82C4C7B
:1041600043F8284C43F8244C43F8204C43F81C4CAB
:1041700043F8184C43F8144C43F8104C43F80C4CDB
:1041800043F8084C43F8044CDCDC08E01C601033B6
:10419000D51A43F80C4C43F8084C43F8044C0F2D47
:1041A000F4DC032D08DD1D1D561B45F8044C032EC1
:1041B0002B4605F10405F7DC9A42ACD901330132F4
:1041C00003F8011C01339342FAD1A4E7704700BF02
:1041D000704700BF38B549F2E024C1F6FF740546C8
:1041E000084600232360FCF705FA431C00D038BDC5
:1041F0002368002BFBD02B6038BD00BF2DE9F041B8
:1042000044F6BC24C0F2000484B007462568AC6CB8
:10421000002C42D066681F2E1ADD43F6D514C0F27A
:10422000000424B94FF0FF3004B0BDE8F0818C20C9
:10423000039102920193FFF7CDFB0399029A019B30
:1042400004460028EED0A86C002684E84100AC6447
:10425000DFB1D4F8886026B3D6F800816568012004
:10426000022F05F1200C00FA05F046F8252048EA57
:10427000000246F82C3008BFD6F80431C6F80021F9
:1042800004BF1843C6F8040100E06568AB1C0020B9
:104290000135656044F82310C6E705F14C04AC64B1
:1042A000B8E743F6D510C0F200000028BAD04FF4AA
:1042B0008470039102920193FFF78CFB0399029A99
:1042C000019B06460028ADD00020C6F80001C6F8C4
:1042D00004018046C4F88860C0E700BFF8B548F61E
:1042E0000414C1F6FF740F460546FFF76FFFA3687D
:1042F0005E6826F0030606F6EF73DF1B3F0B013FF7
:104300003F03B7F5805F07DB00212846FFF762FF18
:10431000A3689B19984204D02846FFF759FF002054
:10432000F8BD79422846FFF755FF013010D049F219
:10433000A023A168C1F6FF73F61B284646F00106CC
:104340001A684E60D71B1F60FFF742FF0120F8BDBF
:1043500000212846FFF73EFFA368C21A0F2ADBDDC3
:1043600048F60C5449F2A021C1F6FF74C1F6FF7162
:1043700042F001025A602368C01A0860CCE700BF0F
:104380002DE9F0410E46804600295CD0FFF71EFF64
:1043900048F6041556F8041CC1F6FF75A6F108048A
:1043A00021F00103AF68E2189742506820F0030043
:1043B00067D011F00101506035D0002116187668E1
:1043C00016F0010F06D11B18906800294DD0D26855
:1043D000C260906043F00102E3506260F1B9B3F54E
:1043E000007F32D35A0A042A6CD898093830410029
:1043F00005EB810548F60411C1F6FF71AA68AA42CF
:104400006BD0516821F003018B4202D29268954231
:10441000F7D1D368E360A260D4609C604046BDE8F9
:10442000F041FFF7D5BE56F8086C05F1080CA41B47
:104430009B19A668664543D0D4F80CC0C6F80CC0DA
:10444000CCF80860BAE7BDE8F081DB0801216868B4
:1044500005EBC3029B1001FA03F3E2609168184375
:104460006860A160CC609460D8E7294EB042AED1BC
:104470006C6143F001022C61E060A0606260E35077
:10448000CCE7C018CB0707D456F8083CE41AC0188C
:10449000A268E368D3609A6048F6105240F00103C6
:1044A000C1F6FF726360AC6013689842B6D349F2FC
:1044B0009C234046C1F6FF731968FFF70FFFADE775
:1044C00001217BE702F15B004100142A90D9542AB4
:1044D0000CD8180B6E3041008AE701264D68801019
:1044E000134606FA00F005434D6093E7B2F5AA7F44
:1044F00003D8D80B773041007AE740F254518A4212
:1045000003D8980C7C30410072E7FC217E206FE7D5
:104510000C89FF1F4008FE4340A004404408FE43AE
:1045200044A004400018FE4300C004403000FE4395
:10453000309004403400FE43349004401C18FE4385
:104540001CC004401018FE4310C004400818FE436D
:1045500008C004400C18FE430CC004400C10FE437D
:104560000CB004401010FE4310B004401810FE437D
:1045700018B004401C10FE431CB004401410FE434D
:1045800014B004400418FE4304C004400010FE436D
:1045900000B004400008FE4300A004400408FE43AD
:1045A00004A004400C08FE430CA004400808FE438D
:1045B00008A004401418FE4314C004401818FE4319
:1045C00018C004400410FE4304B004400810FE4329
:1045D00008B004401400FE43149004404C08FE430D
:1045E0004CA004400420FE4304D004402410FE43A9
:1045F00024B004402010FE4320B004402810FE43A5
:1046000028B004402C10FE432CB004400020FE4390
:1046100000D004404808FE4348A004401000FE4378
:104620001090044000151915000100006C87FF1F51
:1046300012000000000200009687FF1F43000000E8
:1046400000030000F087FF1F0000000001030904C1
:104650007E87FF1F0000000002030904DA87FF1FA6
:104660000000000003030904F487FF1F000000009E
:10467000000000000000000000000000FFFFFFFF3E
:104680000000000000000000C9230000ED2300002E
:1046900011240000092400000D240000052400005E
:1046A0001F240000312400001B24000015240000FA
:1046B00001240000FD2300008D2300009923000049
:1046C000A5230000B1230000D5230000BD23000076
:1046D0000000000000000000AD240000D124000014
:1046E000F5240000ED240000F1240000E92400007E
:1046F0000325000015250000FF240000F924000018
:10470000E5240000E1240000712400007D24000065
:104710008924000095240000B9240000A124000091
:10472000000000000000000091250000B5250000F9
:10473000D9250000D1250000D5250000CD25000099
:10474000E7250000F9250000E3250000DD25000035
:10475000C9250000C5250000552500006125000081
:104760006D250000792500009D25000085250000AD
:1047700000000000000000003926000000000000DA
:104780000D0AFFFFFFFFFFFF000000000000000018
:104790005D280000552800006F2800006B280000ED
:1047A00067280000632800000200030004000500E1
:1047B000060008000A000C00100014001800200079
:1047C00028003800400060008000C0000001800127
:1047D000000280020003FFFF000000800000018053
:1047E0000000000000000280000001000110000035
:1047F000000002000110010003200000010002007F
:104800000320010004300000032002000320030005
:104810000540000005400100065000000650010060
:1048200007600000076001000870000007600200D8
:1048300008700100FFFFFFFF000000000000000003
:10484000552E0000672700003D2900005529000073
:1048500091290000BD2900004552524F52200045C9
:10486000767420446576696365205374617274655B
:10487000643A2053657475700045767420446576FB
:1048800069636520537461727465643A205374617E
:104890006E646279004572726F7220696E204143C6
:1048A000492053657475700041647665727469734C
:1048B000696E672073746172746564203A20546174
:1048C0007020436F6E6E656374206F6E2074686530
:1048D000206E5246205541525420617070206F72F4
:1048E00020636C69656E74206170706C69636174BB
:1048F000696F6E0041434920436F6D6D616E6420A6
:104900000045767420436D6420726573706F6E6528
:104910003A20537461747573200045767420436F98
:104920006E6E6563746564004576742050697065C9
:104930002053746174757300457674206C696E6BD6
:1049400020636F6E6E656374696F6E20696E746547
:104950007276616C206368616E6765640045767489
:1049600020446973636F6E6E65637465642F416480
:10497000766572746973696E672074696D65642009
:104980006F7574004164766572746973696E67202F
:10499000737461727465642E2054617020436F6E6D
:1049A0006E656374206F6E20746865206E524620B9
:1049B00055415254206170700050697065204E75E9
:1049C0006D6265723A200020446174612848657800
:1049D00029203A20004143492045767420506970CF
:1049E00065204572726F723A205069706520233AD3
:1049F00000202050697065204572726F7220436FED
:104A000064653A203078004857206572726F723AB8
:104A100020000957726974696E67206F6E652062A5
:104A2000797465203078000957726974696E67205F
:104A30006F757420746F2042544C453A000D0A0083
:104A4000496E697469616C697A696E672055415273
:104A5000542073657276696365002F5573657273B0
:104A60002F677234797363616C652F446F63756D62
:104A7000656E74732F41726475696E6F2F6C696215
:104A80007261726965732F41646166727569745FE2
:104A90006E5246383030312F7574696C6974792FD5
:104AA0006163695F71756575652E63707000203A8A
:104AB000002C20002045004300FFFFFF1488FF1F4B
:104AC00043000000000000000000000000000000A3
:104AD00000000000000000000000000000000000D6
:104AE00000000000000000000000000000000000C6
:104AF00000000000000000000000000000000000B6
:104B000000000000000000000000000000000000A5
:104B10000000000000000000000000000000000095
:104B200000000000F8B500BFF8BC08BC9E46704706
:104B30009904000055240000392500001D260000BE
:0C4B40007D2600003528000075280000CC
:084B4C0010EEFF7F01000000E4
:104B5400000000000A040000E492FF1F120100029A
:104B640002000040C016830400010102030118037F
:104B74005400650065006E007300790064007500E0
:104B840069006E006F0009024300020100C032098F
:104B940004000001020201000524001001052401A3
:104BA40001010424020605240600010705820310FE
:104BB400004009040100020A000000070503024046
:104BC400000007058402400000001603550053004E
:104BD40042002000530065007200690061006C000F
:104BE400040309040C03000000000000000000009E
:104BF400000000000000000000000000FFFFFFFFB5
:104C04001488FF1F00000000044B0000E44A000069
:104C1400C44A000000000000000000000000000082
:104C240000000000C04A0000000000000000000076
:104C34000000000000000000000000000000000070
:104C44000000000000000000000000000000000060
:104C54000000000000000000000000000000000050
:104C64000000000000000000000000000000000040
:104C74000000000000000000000000000000000030
:104C84000000000000000000000000000000000020
:104C94000000000000000000000000000000000010
:104CA4000000000000000000000000000000000000
:104CB40000000000000000000000000000000000F0
:104CC40000000000000000000000000000000000E0
:104CD40000000000000000000000000000000000D0
:104CE40000000000000000000000000000000000C0
:104CF4000000000000000000000000000489FF1F05
:104D04000489FF1F0C89FF1F0C89FF1F1489FF1FD3
:104D14001489FF1F1C89FF1F1C89FF1F2489FF1F83
:104D24002489FF1F2C89FF1F2C89FF1F3489FF1F33
:104D34003489FF1F3C89FF1F3C89FF1F4489FF1FE3
:104D44004489FF1F4C89FF1F4C89FF1F5489FF1F93
:104D54005489FF1F5C89FF1F5C89FF1F6489FF1F43
:104D64006489FF1F6C89FF1F6C89FF1F7489FF1FF3
:104D74007489FF1F7C89FF1F7C89FF1F8489FF1FA3
:104D84008489FF1F8C89FF1F8C89FF1F9489FF1F53
:104D94009489FF1F9C89FF1F9C89FF1FA489FF1F03
:104DA400A489FF1FAC89FF1FAC89FF1FB489FF1FB3
:104DB400B489FF1FBC89FF1FBC89FF1FC489FF1F63
:104DC400C489FF1FCC89FF1FCC89FF1FD489FF1F13
:104DD400D489FF1FDC89FF1FDC89FF1FE489FF1FC3
:104DE400E489FF1FEC89FF1FEC89FF1FF489FF1F73
:104DF400F489FF1FFC89FF1FFC89FF1F048AFF1F22
:104E0400048AFF1F0C8AFF1F0C8AFF1F148AFF1FCE
:104E1400148AFF1F1C8AFF1F1C8AFF1F248AFF1F7E
:104E2400248AFF1F2C8AFF1F2C8AFF1F348AFF1F2E
:104E3400348AFF1F3C8AFF1F3C8AFF1F448AFF1FDE
:104E4400448AFF1F4C8AFF1F4C8AFF1F548AFF1F8E
:104E5400548AFF1F5C8AFF1F5C8AFF1F648AFF1F3E
:104E6400648AFF1F6C8AFF1F6C8AFF1F748AFF1FEE
:104E7400748AFF1F7C8AFF1F7C8AFF1F848AFF1F9E
:104E8400848AFF1F8C8AFF1F8C8AFF1F948AFF1F4E
:104E9400948AFF1F9C8AFF1F9C8AFF1FA48AFF1FFE
:104EA400A48AFF1FAC8AFF1FAC8AFF1FB48AFF1FAE
:104EB400B48AFF1FBC8AFF1FBC8AFF1FC48AFF1F5E
:104EC400C48AFF1FCC8AFF1FCC8AFF1FD48AFF1F0E
:104ED400D48AFF1FDC8AFF1FDC8AFF1FE48AFF1FBE
:104EE400E48AFF1FEC8AFF1FEC8AFF1FF48AFF1F6E
:104EF400F48AFF1FFC8AFF1FFC8AFF1F048BFF1F1D
:104F0400048BFF1F0C8BFF1F0C8BFF1F148BFF1FC9
:104F1400148BFF1F1C8BFF1F1C8BFF1F248BFF1F79
:104F2400248BFF1F2C8BFF1F2C8BFF1F348BFF1F29
:104F3400348BFF1F3C8BFF1F3C8BFF1F448BFF1FD9
:104F4400448BFF1F4C8BFF1F4C8BFF1F548BFF1F89
:104F5400548BFF1F5C8BFF1F5C8BFF1F648BFF1F39
:104F6400648BFF1F6C8BFF1F6C8BFF1F748BFF1FE9
:104F7400748BFF1F7C8BFF1F7C8BFF1F848BFF1F99
:104F8400848BFF1F8C8BFF1F8C8BFF1F948BFF1F49
:104F9400948BFF1F9C8BFF1F9C8BFF1FA48BFF1FF9
:104FA400A48BFF1FAC8BFF1FAC8BFF1FB48BFF1FA9
:104FB400B48BFF1FBC8BFF1FBC8BFF1FC48BFF1F59
:104FC400C48BFF1FCC8BFF1FCC8BFF1FD48BFF1F09
:104FD400D48BFF1FDC8BFF1FDC8BFF1FE48BFF1FB9
:104FE400E48BFF1FEC8BFF1FEC8BFF1FF48BFF1F69
:104FF400F48BFF1FFC8BFF1FFC8BFF1F048CFF1F18
:10500400048CFF1F0C8CFF1F0C8CFF1F148CFF1FC4
:10501400148CFF1F1C8CFF1F1C8CFF1F248CFF1F74
:10502400248CFF1F2C8CFF1F2C8CFF1F348CFF1F24
:10503400348CFF1F3C8CFF1F3C8CFF1F448CFF1FD4
:10504400448CFF1F4C8CFF1F4C8CFF1F548CFF1F84
:10505400548CFF1F5C8CFF1F5C8CFF1F648CFF1F34
:10506400648CFF1F6C8CFF1F6C8CFF1F748CFF1FE4
:10507400748CFF1F7C8CFF1F7C8CFF1F848CFF1F94
:10508400848CFF1F8C8CFF1F8C8CFF1F948CFF1F44
:10509400948CFF1F9C8CFF1F9C8CFF1FA48CFF1FF4
:1050A400A48CFF1FAC8CFF1FAC8CFF1FB48CFF1FA4
:1050B400B48CFF1FBC8CFF1FBC8CFF1FC48CFF1F54
:1050C400C48CFF1FCC8CFF1FCC8CFF1FD48CFF1F04
:1050D400D48CFF1FDC8CFF1FDC8CFF1FE48CFF1FB4
:1050E400E48CFF1FEC8CFF1FEC8CFF1FF48CFF1F64
:1050F400F48CFF1FFC8CFF1FFC8CFF1FFFFFFFFFC6
:0451040000000200A5
:00000001FF
